:1000000045C0000060C000005EC000005CC0000091
:100010005AC0000058C0000056C0000054C0000084
:1000200052C0000050C000004EC000004CC0000094
:100030004AC0000048C0000046C0000044C00000A4
:1000400085C2000040C0000012C400003CC0000097
:100050003AC0000038C0000036C0000034C00000C4
:1000600032C0000030C000002EC000002CC00000D4
:100070002AC0000028C0000026C0000024C00000E4
:1000800022C0000020C000001EC0000011241FBEBE
:10009000CFEFD0E1DEBFCDBF11E0A0E0B1E0E4EEF4
:1000A000FBE000E00BBF02C007900D92AC36B10739
:1000B000D9F722E0ACE6B1E001C01D92AF33B20740
:1000C000E1F7C9D28DC59CCF81B38F7081BB0895F4
:1000D00080B3807190916E01911111C0882379F0E5
:1000E0002FEF8DEE92E0215080409040E1F700C06C
:1000F000000081E080936E0180E090E008959130EF
:1001000081F4811111C010926E012FEF86E791E00A
:10011000215080409040E1F700C0000081E090E075
:10012000089580E090E0089580E090E0089580B325
:10013000807290916D01911111C0882379F02FEF99
:100140008DEE92E0215080409040E1F700C0000029
:1001500081E080936D0180E090E00895913081F41A
:10016000811111C010926D012FEF86E791E02150AF
:1001700080409040E1F700C0000081E090E00895E9
:1001800080E090E0089580E090E0089580B380746E
:1001900090916C01911111C0882379F02FEF8DEEB1
:1001A00092E0215080409040E1F700C0000081E0E3
:1001B00080936C0180E090E00895913081F481118A
:1001C00011C010926C012FEF86E791E02150804022
:1001D0009040E1F700C0000081E090E0089580E0E9
:1001E00090E0089580E090E008959093D20180938C
:1001F000D10108958091D1019091D2010895CF93BA
:10020000DF93CDB7DEB72A970FB6F894DEBF0FBEE7
:10021000CDBF8AE0EEE0F1E0DE01119601900D9293
:100220008A95E1F7E7DFAC0180916F019091700151
:100230008130910561F140F08230910509F453C09D
:10024000039709F47EC0AAC080E888BB9A01ADEC90
:10025000BCEC79D4969587959695879596958795D4
:100260009C01220F331F880F991F880F991F880F39
:10027000991F820F931F9A01281B390BE1E0F0E0D0
:10028000EC0FFD1FE20FF31F808185BB87C080E468
:1002900088BB9A01ADECBCEC56D4AC0156954795A1
:1002A00056954795569547959A014DD496958795BD
:1002B00096958795969587959C01220F331F880FF9
:1002C000991F880F991F880F991F820F931F9A01FA
:1002D000281B390BE1E0F0E0EC0FFD1FE20FF31FEC
:1002E000808185BB5BC080E288BB9A0136952795EB
:1002F00036952795ABE7B4E126D4AC0156954795E2
:100300009A01ADECBCEC1FD4969587959695879590
:10031000969587959C01220F331F880F991F880F90
:10032000991F880F991F820F931F9A01281B390B61
:10033000E1E0F0E0EC0FFD1FE20FF31F808185BBD1
:100340002DC080E188BB9A01369527953695279573
:1003500036952795A5ECB0E2F6D3AC0152954295BF
:100360004F7045275F7045279A01ABEABAEAEBD395
:1003700096958795969587959C01220F331F820F3E
:10038000931F880F991F9A01281B390BE1E0F0E0B9
:10039000EC0FFD1FE20FF31F808185BB80916F0181
:1003A00090917001019683709927909370018093CA
:1003B0006F012A960FB6F894DEBF0FBECDBFDF9156
:1003C000CF9108958FEF84BB87B3806F87BB15BA39
:1003D00008958FEF8ABB089580E090E013C021E07C
:1003E00030E0082E02C0220F331F0A94E2F72BBB25
:1003F0002FEF35EA4EE0215030404040E1F700C099
:10040000000001968830910554F3089580E090E053
:1004100013C020E830E0082E02C0359527950A94D5
:10042000E2F72BBB2FEF35EA4EE021503040404041
:10043000E1F700C0000001968830910554F308955B
:100440001BBA20E030E016C04BB381E090E0022EF2
:1004500002C0880F991F0A94E2F7842B8BBB4FEFE1
:1004600085EA9EE0415080409040E1F700C00000E6
:100470002F5F3F4F283031053CF308951BBA20E031
:1004800030E016C04BB380E890E0022E02C0959594
:1004900087950A94E2F7842B8BBB4FEF85EA9EE0A9
:1004A000415080409040E1F700C000002F5F3F4F77
:1004B000283031053CF3089520E030E01EC080E88C
:1004C00090E0AC01022E02C0559547950A94E2F7E0
:1004D00081E090E0022E02C0880F991F0A94E2F793
:1004E000842B8BBB4FEF85EA9EE0415080409040CB
:1004F000E1F700C000002F5F3F4F24303105FCF2D0
:10050000089520E030E01EC080E190E0AC01022EB2
:1005100002C0440F551F0A94E2F788E090E0022ED3
:1005200002C0959587950A94E2F7842B8BBB4FEF19
:1005300085EA9EE0415080409040E1F700C0000015
:100540002F5F3F4F24303105FCF208951F920F9228
:100550000FB60F9211240BB60F922F933F934F9328
:100560005F936F937F938F939F93AF93BF93EF931B
:10057000FF9386E082BF8091790190917A01A091EA
:100580007B01B0917C010196A11DB11D8093790181
:1005900090937A01A0937B01B0937C01883E9340B5
:1005A000A105B105E0F01092790110927A01109244
:1005B0007B0110927C018091750190917601A09150
:1005C0007701B09178010196A11DB11D809375014D
:1005D00090937601A0937701B093780132D1809106
:1005E000790190917A01A0917B01B0917C01837097
:1005F0009927AA27BB27892B8A2B8B2B09F4FFDD90
:100600008091880190918901019709F479D0BEDD2C
:10061000892B29F0EAE8F1E0128211821082FF9121
:10062000EF91BF91AF919F918F917F916F915F916A
:100630004F913F912F910F900BBE0F900FBE0F90D7
:100640001F90189586E082BF83B7846083BF87B709
:10065000816087BF0895CF93DF9300D01F92CDB7FD
:10066000DEB7B7DEAFDE30DD41D1D8D180E091E03A
:1006700090933C0280933B02E5DF789410927401E2
:100680001092730110928901109288018091730178
:1006900090917401009719F00197B9F02EC0CE0126
:1006A0000196C4D02A818B8190E034E6239F800D8F
:1006B000911D11249ADD0CDD892BF9F081E090E089
:1006C000909374018093730118C080918801909178
:1006D00089018130910539F08230910531F0892B03
:1006E00029F46ED003C05FD001C082D0F1DC892B29
:1006F00021F010927401109273010BD19FD1C6CFDB
:1007000080917D018F5F80937D01843678F1109216
:100710007D0180917E0190917F01019690937F01F0
:1007200080937E01CC9714F110927F0110927E018C
:100730008091800190918101019690938101809335
:100740008001CC979CF010928101109280018091E1
:10075000820190918301019690938301809382019D
:10076000489724F0109283011092820180918001B9
:100770009091810144E6489F9001499F300D1124DA
:1007800080917E0190917F01820F931F092E000CB2
:10079000AA0BBB0B8093840190938501A0938601E3
:1007A000B0938701089580918401909185011DDDAA
:1007B000BEDC892B21F010928901109288010895E6
:1007C000809184019091850110DDB1DC892B31F09D
:1007D00081E090E09093890180938801D7DC892B98
:1007E00031F082E090E09093890180938801089530
:1007F0001092840110928501109286011092870157
:100800001092830110928201109281011092800156
:1008100010927F0110927E0110927D0180E090E0A5
:10082000E4DC1092890110928801089520918A01D8
:1008300030918B0140918C01FC01208331834283F4
:100840000895EAE8F1E082818F5F82838C3370F053
:10085000128281818F5F81838C3340F0118280818D
:100860008F5F8083883110F010928A0108951F9263
:100870000F920FB60F9211240BB60F922F933F9346
:100880004F935F938F93EF93FF938CB18D3011F063
:100890008A3079F4E0918D01F0918E01EB52FE4F98
:1008A000108210928E0110928D0181E080938F0151
:1008B0000FC020918D0130918E01A9014F5F5F4FD4
:1008C00050938E0140938D01F901EB52FE4F8083CE
:1008D000FF91EF918F915F914F913F912F910F90E9
:1008E0000BBE0F900FBE0F901F90189510929000A6
:1008F0008FEC89B98BB182608BB9E5E9F0E080813A
:100900008660808388E98AB908955D9BFECF8CB9A3
:10091000089580918F01882309F45FC010928F01A0
:1009200085ED91E02DD14DE050E068E171E085ED7D
:1009300091E018D1892B31F481E090E0909372011D
:10094000809371014EE050E067E271E085ED91E047
:1009500009D1892B31F482E090E090937201809369
:10096000710141E150E067E371E085ED91E0FAD07B
:10097000892B31F483E090E09093720180937101B0
:1009800042E150E06AE471E085ED91E0EBD0892B23
:1009900031F484E090E0909372018093710143E020
:1009A00050E06EE571E085ED91E0DCD0892B31F40B
:1009B00085E090E0909372018093710147E050E0F0
:1009C00063E671E085ED91E0CDD0892B31F486E0CE
:1009D00090E09093720180937101809171019091E8
:1009E00072018330910591F034F48130910551F01A
:1009F000029751F008958530910561F04CF006970B
:100A000059F00895E9CC089501CD089519CD0895C0
:100A100035CD089551CD089574CD0895EAE9F0E0FB
:100A2000808188698083EBE9F0E080818260808347
:100A3000109298008FEC8093990008958091900116
:100A4000882309F45FC01092900181E991E098D069
:100A50004DE050E068E171E081E991E083D0892BBD
:100A600031F481E090E090937201809371014EE047
:100A700050E067E271E081E991E074D0892B31F4B4
:100A800082E090E0909372018093710141E150E027
:100A900067E371E081E991E065D0892B31F483E06F
:100AA00090E0909372018093710142E150E06AE41A
:100AB00071E081E991E056D0892B31F484E090E037
:100AC000909372018093710143E050E06EE571E014
:100AD00081E991E047D0892B31F485E090E0909353
:100AE00072018093710147E050E063E671E081E9B3
:100AF00091E038D0892B31F486E090E09093720138
:100B00008093710180917101909172018330910500
:100B100091F034F48130910551F0029751F008952D
:100B20008530910561F04CF0069759F0089554CC4A
:100B300008956CCC089584CC0895A0CC0895BCCCC5
:100B40000895DFCC0895A29FB001B39FC001A39F79
:100B5000700D811D1124911DB29F700D811D1124F6
:100B6000911D0895FB01DC014150504030F08D9102
:100B70000190801919F40020B9F7881B990B08958A
:100B80000F931F93CF93DF93E0913B02F0913C02D0
:100B9000238121FF1BC08C01D0E0C0E0F8018191CE
:100BA0008F0160913B0270913C02DB011896ED9140
:100BB000FC911997882331F00995892B79F3DFEFA0
:100BC000CFEFECCF8AE00995892B19F08FEF9FEFDB
:100BD00002C08D2F9C2FDF91CF911F910F9108950F
:040BE000F894FFCFB7
:100BE4000000000200000000850400000000C0F9BD
:100BF400A4B0999282D8809873686966746C6566AB
:100C0400746C65646F6E0073686966747269676892
:100C1400746C65646F6E0073686966746C65667481
:100C2400686F6C646C65646F6E0073686966747277
:100C340069676874686F6C646C65646F6E00666F76
:0C0C4400666600666C6F7765726F6E006C
:00000001FF
